:020000040000FA
:100000000C9462000C948A000C948A000C948A0070
:100010000C948A000C948A000C948A000C948A0038
:100020000C948A000C948A000C948A000C94380773
:100030000C948A000C948A000C948A000C948A0018
:100040000C947B050C948A000C94EB050C94C5056C
:100050000C948A000C948A000C948A000C948A00F8
:100060000C941D060C948A0000000000230026005A
:10007000290000000000240027002A0000000000E2
:10008000250028002B0004040404040404040202D4
:100090000202020203030303030301020408102007
:1000A0004080010204081020010204081020000012
:1000B0000008000201000003040700000000000027
:1000C0000000F40711241FBECFEFD8E0DEBFCDBF84
:1000D00011E0A0E0B1E0ECE3FCE102C005900D927C
:1000E000AC3DB107D9F723E0ACEDB1E001C01D9202
:1000F000AB33B207E1F710E0C2E6D0E004C02197CD
:10010000FE010E940D0CC136D107C9F70E94A30859
:100110000C941C0E0C940000833081F028F4813084
:1001200099F08230A9F008958730A9F08830C9F09D
:100130008430B1F4809180008F7D03C08091800075
:100140008F7780938000089584B58F7784BD08955C
:1001500084B58F7DFBCF8091B0008F778093B00006
:1001600008958091B0008F7DF9CF1F93CF93DF93D7
:10017000282F30E0F901E255FF4F8491F901E6564E
:10018000FF4FD491F901EA57FF4FC491CC23A9F056
:10019000162F81110E948C00EC2FF0E0EE0FFF1F54
:1001A000E458FF4FA591B4918FB7F894EC911111D9
:1001B00008C0D095DE23DC938FBFDF91CF911F91D4
:1001C0000895DE2BF8CFCF93DF9390E0FC01E65645
:1001D000FF4F24918A579F4FFC0184918823D1F0CF
:1001E00090E0880F991FFC01EE58FF4FA591B49144
:1001F000FC01E458FF4FC591D49161110EC09FB727
:10020000F8948C91E22FE0958E238C932881E22341
:10021000E8839FBFDF91CF9108958FB7F894EC9159
:10022000E22BEC938FBFF6CFCF93DF93EC0161E02D
:1002300085E00E94E300209731F460E085E0DF91E3
:10024000CF910C94B500CF3FD10511F461E0F6CF0A
:10025000E3EBF0E0E491E33029F140F4E130B1F078
:10026000E230D9F0C038D1058CF7E7CFE73021F183
:10027000E83051F1E430B1F78091800080628093E2
:100280008000D0938B00C0938A0004C084B580683E
:1002900084BDC7BDDF91CF91089584B5806284BDD0
:1002A000C8BDF8CF80918000806880938000D09393
:1002B0008900C0938800EECF8091B0008068809361
:1002C000B000C093B300E6CF8091B000806280930D
:1002D000B000C093B400DECF3FB7F89480914F02D6
:1002E00090915002A0915102B091520226B5A89B64
:1002F00005C02F3F19F00196A11DB11D3FBFBA2FB8
:10030000A92F982F8827BC01CD01620F711D811D77
:10031000911D42E0660F771F881F991F4A95D1F7FC
:1003200008958F929F92AF92BF92CF92DF92EF92F9
:10033000FF924B015C010E946C016B017C010E94E9
:100340006C016C197D098E099F09683E7340810517
:100350009105A8F321E0821A9108A108B10888EE5E
:10036000C80E83E0D81EE11CF11C81149104A10485
:10037000B10429F7FF90EF90DF90CF90BF90AF903E
:100380009F908F900895AF92BF92CF92DF92EF929D
:10039000FF920F931F93CF93DF936C017B018B012F
:1003A000040F151FEB015E01AE18BF08C017D1077F
:1003B00059F06991D601ED91FC910190F081E02D09
:1003C000C6010995892B79F7C501DF91CF911F915E
:1003D0000F91FF90EF90DF90CF90BF90AF90089576
:1003E000FC01538D448D252F30E0842F90E0821B3B
:1003F000930B541710F0CF96089501970895FC01C0
:10040000918D828D981761F0A28DAE0FBF2FB11D17
:100410005D968C91928D9F5F9F73928F90E008956F
:100420008FEF9FEF08952FB7F8948091530290912A
:100430005402A0915502B09156022FBF80935F02E3
:1004400090936002A0936102B093620287E592E00C
:100450000E94FF0197FF26C02FB7F89480915302A6
:1004600090915402A0915502B09156022FBF409135
:100470005F02509160026091610270916202841B80
:10048000950BA60BB70B40915B0250915C026091FB
:100490005D0270915E0284179507A607B707B0F258
:1004A0008FEF9FEF0895FC01918D828D981731F0A9
:1004B000828DE80FF11D858D90E008958FEF9FEFFD
:1004C0000895FC01918D228D892F90E0805C9F4FD3
:1004D000821B91098F739927089587E592E00E9406
:1004E000610221E0892B09F420E0822F089580E049
:1004F00090E0892B29F00E946D0281110C9400007C
:100500000895FC01A48DA80FB92FB11DA35ABF4FA8
:100510002C91848D90E001968F739927848FA68902
:10052000B7892C93A089B1898C91837080648C9356
:10053000938D848D981306C00288F389E02D808105
:100540008F7D80830895EF92FF920F931F93CF9337
:10055000DF93EC0181E0888F9B8D8C8D98131AC0FE
:10056000E889F989808185FF15C09FB7F894EE89E5
:10057000FF896083E889F989808183708064808342
:100580009FBF81E090E0DF91CF911F910F91FF908D
:10059000EF900895F62E0B8D10E00F5F1F4F0F7335
:1005A0001127E02E8C8D8E110CC00FB607FCFACFF0
:1005B000E889F989808185FFF5CFCE010E9481020B
:1005C000F1CFEB8DEC0FFD2FF11DE35AFF4FF082C1
:1005D0009FB7F8940B8FEA89FB8980818062CFCF27
:1005E000CF93DF93EC01888D8823B9F0AA89BB896A
:1005F000E889F9898C9185FD03C0808186FD0DC055
:100600000FB607FCF7CF8C9185FFF2CF808185FF75
:10061000EDCFCE010E948102E9CFDF91CF91089505
:1006200020910402260F3327331F21323105ECF4C9
:1006300020912802FC0190E080E0243069F082E003
:100640000895A09104022191AC014C515E4FA40F7A
:10065000B52FB11D2C930196861798F38091040253
:10066000680F6093040280E0089581E00895089582
:100670008FEF9FEF08958FEF9FEF08958091DD0139
:1006800090E09195819591090895CF93DF93CB01E7
:10069000EA01642F0E941003CE01DF91CF910895EB
:1006A000CF93DF931F92CDB7DEB7698361E0CE01B0
:1006B00001960E94100381E090E00F90DF91CF91AE
:1006C000089590E080E008958F929F92AF92BF923C
:1006D000FF920F931F93CF93DF93FC01F0808BE089
:1006E0008F1508F44AC0828108E512E0081B110941
:1006F00087FD1395000F111F000F111F8181C8E89E
:10070000D0E0C81BD10987FDD395CC0FDD1FCC0FDE
:10071000DD1F4E010D2E000CAA08BB089801012E0A
:10072000000C440B550B281939094A095B09DB01F8
:100730000E94910B24EB30E040E050E00E94670BF8
:10074000820E931EA41EB51E8C169D062CF0E80189
:10075000801691060CF4E4012297CC0FDD1F2FB711
:10076000F8948F2D90E0FC01EE0FFF1FE80FF91FAA
:10077000EC50FD4FD283C1832FBFDF91CF911F91EA
:100780000F91FF90BF90AF909F908F9008951F930F
:10079000CF93DF93EC01162F88818C3008F04EC088
:1007A00061E0812F0E94E3008881282F30E0F90169
:1007B000EE0FFF1FE20FF31FEC50FD4F1F73608120
:1007C000607C612B608319821A822CE0622F0E9468
:1007D000010C829FB001112430E020E0AB01420FF8
:1007E000531FFA01EE0FFF1FE40FF51FEC50FD4FF2
:1007F000908196FD16C02F5F3F4F2C30310571F769
:1008000081110FC01092800082E0809381001092CD
:10081000850010928400B19A80916F00826080936D
:100820006F00E8818E2F90E0FC01EE0FFF1FE80FB4
:10083000F91FEC50FD4F8081806480838881DF91B7
:10084000CF911F910895FC0101900020E9F73197A5
:10085000AF01481B590BBC0187E592E00C94C30122
:10086000CF93DF930E942304EC0188E191E00E9482
:1008700023048C0F9D1FDF91CF910895FB014481CC
:100880005581FC01248135812417350778F080815A
:100890009181009759F0FB016081718161157105AB
:1008A00029F00E940E0E21E0892B09F020E0822F12
:1008B0000895FC0124813581232B39F421E0FB01CB
:1008C0008081882349F020E007C0808191810E94C7
:1008D000FE0D21E0892BB9F7822F08950F931F9306
:1008E000CF93DF93EC0188819981009759F02A8199
:1008F0003B812617370730F081E0DF91CF911F91C0
:100900000F9108958B016F5F7F4F0E94380D009704
:1009100059F0998388831B830A832C813D81232B83
:1009200059F7FC011082E8CF80E0E7CFCF93DF9347
:10093000EC0188819981009711F00E94AF0C198217
:1009400018821D821C821B821A82DF91CF9108952A
:10095000EF92FF920F931F93CF93DF938C017B0154
:10096000EB0109900020E9F72197C61BD70BBE01C8
:100970000E946E04811109C0C801DF91CF911F91BF
:100980000F91FF90EF900C949604F801D583C483E7
:10099000B70180819181DF91CF911F910F91FF90DD
:1009A000EF900C94070EEF92FF920F931F93CF934B
:1009B000DF938C017B016115710561F0EB010990FA
:1009C0000020E9F72197C61BD70BBE010E946E04D9
:1009D00081110BC0C8010E949604C801DF91CF911C
:1009E0001F910F91FF90EF900895F801D583C48374
:1009F000B701808191810E94070EEFCFFC018081B9
:100A00009181009711F00C94AF0C08951F93CF9330
:100A1000DF9385ED8093BC008091E0019091E1012E
:100A2000A091E201B091E3010796A11DB11D23E061
:100A3000B695A795979587952A95D1F72091BC00F3
:100A400024FD03C01092280252C04091E001509151
:100A5000E1016091E2017091E301452B462B472BA8
:100A600069F30097A105B10541F02AE22A95F1F753
:100A700000C00197A109B109E1CF8091DF01C1E078
:100A8000C093DE01882399F1D091B8001091BA008B
:100A90008091BC008A7B8093BC0060E082E10E9470
:100AA000B50060E083E10E94B50010922802C09377
:100AB0002A021092290261E082E10E94B50061E001
:100AC00083E10E94B5008091B9008E7F8093B900C8
:100AD0008091B9008D7F8093B90088E48093B8003D
:100AE00085E48093BC001093BA00D093B800DF91E6
:100AF000CF911F9108951F920F920FB60F9211245C
:100B00002F933F938F939F93AF93BF938091530203
:100B100090915402A0915502B091560230914E022C
:100B200023E0230F2D3758F50196A11DB11D209309
:100B30004E028093530290935402A0935502B093B7
:100B4000560280914F0290915002A0915102B091B3
:100B500052020196A11DB11D80934F029093500245
:100B6000A0935102B0935202BF91AF919F918F9188
:100B70003F912F910F900FBE0F901F90189526E870
:100B8000230F0296A11DB11DD2CF1F920F920FB657
:100B90000F9211242F933F934F935F936F937F9303
:100BA0008F939F93AF93BF93EF93FF9387E592E06B
:100BB0000E948102FF91EF91BF91AF919F918F9120
:100BC0007F916F915F914F913F912F910F900FBE49
:100BD0000F901F9018951F920F920FB60F9211242D
:100BE0002F938F939F93EF93FF93E0916702F09180
:100BF00068028081E0916D02F0916E0282FD1BC05F
:100C00009081809170028F5F8F73209171028217A3
:100C100041F0E0917002F0E0E95AFD4F958F80932A
:100C20007002FF91EF919F918F912F910F900FBEC6
:100C30000F901F9018958081F4CF1F920F920FB6DE
:100C40000F9211242F933F934F935F936F937F9352
:100C50008F939F93AF93BF93EF93FF938091B900CE
:100C6000887F803609F44AC0F0F5883209F4A5C0BF
:100C700018F5803109F499C0B8F4882309F4F5C057
:100C8000883009F492C0FF91EF91BF91AF919F918D
:100C90008F917F916F915F914F913F912F910F9025
:100CA0000FBE0F901F901895883109F486C08032CE
:100CB00051F78093270214C0803409F49BC040F49C
:100CC0008033B9F38833F9F68093270285ECAEC000
:100CD000803509F483C0883509F494C0883499F6C6
:100CE0000E940605D0CF883909F48AC038F58837C4
:100CF00029F050F4883611F0803729F683E080938C
:100D000028021092260255C0883809F479C080392B
:100D100019F0803809F0B7CF80912602803208F0B0
:100D20006FC0E091260281E08E0F809326028091B1
:100D3000BB00F0E0EA5FFD4F80833BC0803B39F0B1
:100D4000D0F4803A09F477C0883A09F09CCF84E067
:100D5000809328021092050210920402F0E0E0E075
:100D600009958091040281110FC081E080930402F3
:100D70001092E40109C0803C09F4A8CF883C09F432
:100D8000A5CF883B09F07FCFE091050281E08E0F6F
:100D900080930502F0E0EC51FE4F80818093BB0010
:100DA000909105028091040229C080914D028093A8
:100DB000BB0085EC8093BC0066CF90914C02809183
:100DC0004B02981758F5E0914C0281E08E0F80930A
:100DD0004C02F0E0E55DFD4F8081E9CFE0914C02EF
:100DE00081E08E0F80934C028091BB00F0E0E55DC6
:100DF000FD4F808390914C0280914B029817C8F26E
:100E000085E8D8CFE0914C0281E08E0F80934C02B0
:100E10008091BB00F0E0E55DFD4F808380912A0268
:100E200081115ECF81E08093290284EA8093BC0027
:100E30001092280228CF85EC8093BC0010922802E3
:100E400080912602803230F4E0912602F0E0EA5FE1
:100E5000FD4F10826091260270E086E092E0F0E0A3
:100E6000E0E00995109226020ECF1092270238CFAB
:100E70001F920F920FB60F9211242F933F934F930F
:100E80005F936F937F938F939F93AF93BF93CF9312
:100E9000DF93EF93FF938091DC01C0911803D0E0C2
:100EA00087FF24C010928500109284008091DC019D
:100EB0008F5F8093DC018091DC01082E000C990B80
:100EC0008C179D0724F48091DC018C30C4F1809153
:100ED000840090918500049680349C4908F47AC07F
:100EE0008091840090918500049676C08091DC0109
:100EF000082E000C990B8C179D07C4F6E091DC01BD
:100F00008E2FEE0F990BFC01EE0FFF1FE80FF91F5C
:100F1000EC50FD4F808186FFC9CFE091DC018E2F20
:100F2000EE0F990BFC01EE0FFF1FE80FF91FEC50BD
:100F3000FD4F808160E08F730E94B500B7CF209194
:100F4000840030918500E091DC018E2FEE0F990B2B
:100F5000FC01EE0FFF1FE80FF91FEC50FD4F8181E0
:100F60009281820F931F9093890080938800E09173
:100F7000DC018E2FEE0F990BFC01EE0FFF1FE80F27
:100F8000F91FEC50FD4F808186FF11C0E091DC011C
:100F90008E2FEE0F990BFC01EE0FFF1FE80FF91FCC
:100FA000EC50FD4F808161E08F730E94B500FF918E
:100FB000EF91DF91CF91BF91AF919F918F917F91F1
:100FC0006F915F914F913F912F910F900FBE0F90B6
:100FD0001F90189580E49CE9909389008093880085
:100FE0008FEF8093DC01E3CF10925A0210925902E6
:100FF00088EE93E0A0E0B0E080935B0290935C0207
:10100000A0935D02B0935E028AE091E09093580253
:101010008093570285EC90E0909364028093630282
:1010200084EC90E0909366028093650280EC90E0FF
:10103000909368028093670281EC90E090936A023B
:101040008093690282EC90E090936C0280936B0233
:1010500086EC90E090936E0280936D021092700285
:1010600010927102109272021092730210922B036E
:1010700010922C0310922D0310922E0310922F0326
:101080001092300310923103109232031092330306
:1010900010923403109235031092360380E090E0F2
:1010A000A0E0B0E480931F0390932003A09321035A
:1010B000B09322038093230390932403A0932503EA
:1010C000B09326038DEC9CECACECBDE3809327033E
:1010D00090932803A0932903B0932A0380911803C7
:1010E0008C3048F591E0980F9093180380931C037F
:1010F00090E0FC01EE0FFF1FE80FF91FEC50FD4FD1
:1011000088EB9BE092838183809118038C30B8F444
:1011100091E0980F909318038093190390E0FC01DD
:10112000EE0FFF1FE80FF91FEC50FD4F88EB9BE01F
:101130009283818308958FEF80931C03E5CF8FEF17
:10114000809319030895CF93DF93CDB7DEB76297ED
:101150000FB6F894DEBF0FBECDBF789484B5826021
:1011600084BD84B5816084BD85B5826085BD85B54B
:10117000816085BD80916E00816080936E001092C9
:101180008100809181008260809381008091810044
:1011900081608093810080918000816080938000D5
:1011A0008091B10084608093B1008091B000816033
:1011B0008093B00080917A00846080937A0080915F
:1011C0007A00826080937A0080917A0081608093B7
:1011D0007A0080917A00806880937A001092C10032
:1011E000E0916702F091680282E08083E0916302FF
:1011F000F09164021082E0916502F09166028FEC3A
:10120000808310926F02E0916B02F0916C0286E095
:101210008083E0916902F0916A028081806180831D
:10122000E0916902F0916A02808188608083E09198
:101230006902F0916A02808180688083E09169028E
:10124000F0916A0280818F7D808360E082E00E945D
:10125000E30061E08CE00E94E30060E08CE00E942B
:10126000B50061E083E00E94E30061E084E00E9459
:10127000E30061E085E00E94E30069E070E08CE15A
:1012800093E00E94C7036AE070E089E193E00E9466
:10129000C70370E060E08CE193E00E94640370E0BB
:1012A00060E089E193E00E94640350EB452E50E03A
:1012B000552E6CE9662E60E0762E38E8832E30E0FD
:1012C000932E40E0A42E40E0B42EF2018491F3016D
:1012D0001491F40104910023A1F181110E948C006A
:1012E000E02FF0E0EE0FFF1FE859FF4FA591B491FA
:1012F0008C91182331F160E679E080E090E00E9463
:10130000910160E083E00E94B50060E084E00E940B
:10131000B50060ED77E080E090E00E9491018BE104
:1013200091E00E94300468E873E180E090E00E9460
:10133000910161E083E00E94B50060E084E00E94DA
:10134000B50087E592E00E946102181619060CF0BC
:1013500061C11E861D86188A1F861A8A198A6AE14B
:1013600071E0CE010D960E94A8040E94130297FD21
:101370001EC083329105D9F089831A8209891A899E
:101380000F5F1F4FB801CE010D960E946E04882397
:1013900061F32D853E8589899A89BE016F5F7F4FF4
:1013A000820F931F0E94070E1A8B098BDECF1886BF
:1013B0001F821A8619861C861B866AE171E0CE019F
:1013C00007960E94A80409891A8902301105C8F0FD
:1013D0000630110510F006E010E0ED85FE85E00F07
:1013E000F11FF08010826D857E856F5F7F4FCE018B
:1013F00007960E94D3048D859E85080F191FF8015A
:10140000F08264E271E0CE0107960E9459048823BD
:1014100009F44CC0E988FA8887E0C82ED12CF7E09F
:10142000EF16F10420F4670197E0E92EF12C1A82FF
:1014300019821C821B821E821D826AE171E0CE012C
:1014400001960E94A80409891A89C016D106C0F421
:10145000E016F10608F48701ED85FE85E00FF11F27
:10146000F08010826D857E856C0D7D1DCE0101960C
:101470000E94D3048D859E85080F191FF801F08204
:1014800089819A81009709F475C00E942B0BCB01CA
:101490000E9414014D815E8169817A8187E592E025
:1014A0000E94C301CE0101960E94FE046AE271E02F
:1014B000CE010D960E945904882321F061E08CE052
:1014C0000E94B50061E371E0CE010D960E945904BF
:1014D000882321F060E08CE00E94B5001A82198216
:1014E0001C821B821E821D8268E371E0CE01019680
:1014F0000E94A804BE016F5F7F4FCE010D960E942F
:101500003E04182FCE0101960E94FE041123D9F14A
:101510008D859E85C12CD12C7601009719F00E94F3
:101520002B0B6B01FFEFCF16D10409F038F5C60184
:101530000E94140161E083E00E94B50060E084E055
:101540000E94B500C6018D5B9E4F0E9423046BEB89
:1015500071E0CE010D960E9459048823C9F170E014
:1015600060E08CE193E00E94640370E060E089E158
:1015700093E046C060E070E0CB0189CF8FE591E059
:101580000E943004E4CF1A8219821C821B821E82C0
:101590001D826EE971E0CE0101960E94A804BE0191
:1015A0006F5F7F4FCE010D960E943E04182FCE0133
:1015B00001960E94FE04112351F260E083E00E9434
:1015C000B50060E084E00E94B50089EA91E0D8CFE0
:1015D00066EC71E0CE010D960E945904882331F12A
:1015E0006AE570E08CE193E00E94640368EB7BE0C5
:1015F00080E090E00E94910170E060E08CE193E077
:101600000E946403CE0107960E94FE04CE010D964F
:101610000E94FE04A114B10409F457CE0E946D0289
:10162000882309F44ACE0E94000047CE61ED71E0A4
:10163000CE010D960E945904882321F36AE570E0DB
:1016400089E193E00E94640368EB7BE080E090E036
:101650000E9491018ACF1F93FC0199278827BC0122
:10166000E89411911032E9F3193010F01E30C8F3EC
:101670001B3251F01D3249F4689406C00E94520B8F
:10168000610F711D811D911D119110531A30B0F31E
:101690003EF490958095709561957F4F8F4F9F4F49
:1016A0001F910895592F482F372F262F660F771F28
:1016B000881F991F660F771F881F991F620F731F5E
:1016C000841F951F660F771F881F991F0895052E89
:1016D00097FB1EF400940E947E0B57FD07D00E94DA
:1016E000D00B07FC03D04EF40C947E0B5095409524
:1016F000309521953F4F4F4F5F4F089590958095BE
:10170000709561957F4F8F4F9F4F08950E94F20B08
:10171000A59F900DB49F900DA49F800D911D112445
:101720000895B7FF0C94860B0E94860B821B930BC7
:1017300008952F923F924F925F926F927F928F9275
:101740009F92AF92BF92CF92DF92EF92FF920F9350
:101750001F93CF93DF93CDB7DEB7CA1BDB0B0FB65A
:10176000F894DEBF0FBECDBF09942A883988488817
:101770005F846E847D848C849B84AA84B984C884AD
:10178000DF80EE80FD800C811B81AA81B981CE0FA4
:10179000D11D0FB6F894DEBF0FBECDBFED01089589
:1017A000A1E21A2EAA1BBB1BFD010DC0AA1FBB1F65
:1017B000EE1FFF1FA217B307E407F50720F0A21BD7
:1017C000B30BE40BF50B661F771F881F991F1A9444
:1017D00069F760957095809590959B01AC01BD016E
:1017E000CF010895A29FB001B39FC001A39F700DC8
:1017F000811D1124911DB29F700D811D1124911D19
:101800000895991B79E004C0991F961708F0961B5C
:10181000881F7A95C9F780950895EE0FFF1F0590F0
:10182000F491E02D09940F931F93CF93DF938230AF
:10183000910510F482E090E0E0913903F0913A03D1
:1018400030E020E0B0E0A0E0309799F421153105B8
:1018500009F44AC0281B390B24303105D8F58A8198
:101860009B816115710589F1FB0193838283FE01E0
:1018700011C0408151810281138148175907E0F05E
:101880004817590799F4109761F012960C93129724
:1018900013961C933296CF01DF91CF911F910F9138
:1018A00008950093390310933A03F4CF21153105BD
:1018B00051F04217530738F0A901DB019A01BD012D
:1018C000DF01F801C1CFEF01F9CF90933A03809384
:1018D0003903CDCFFE01E20FF31F81939193225084
:1018E000310939832883D7CF2091370330913803CA
:1018F000232B41F4209102013091030130933803EE
:101900002093370320910001309101012115310509
:1019100041F42DB73EB74091040150910501241BBD
:10192000350BE0913703F0913803E217F307A0F489
:101930002E1B3F0B2817390778F0AC014E5F5F4F25
:101940002417350748F04E0F5F1F5093380340931C
:101950003703819391939FCFF0E0E0E09CCFCF934A
:10196000DF930097E9F0FC01329713821282A09175
:101970003903B0913A03ED0130E020E01097A1F473
:1019800020813181820F931F2091370330913803DA
:101990002817390709F061C0F0933803E093370343
:1019A000DF91CF910895EA01CE17DF07E8F54A816C
:1019B0005B819E0141155105B1F7E901FB83EA8383
:1019C00049915991C40FD51FEC17FD0761F480812F
:1019D00091810296840F951FE90199838883828102
:1019E00093819B838A83F0E0E0E012968D919C9135
:1019F00013970097B9F52D913C911197CD0102965F
:101A0000820F931F2091370330913803281739072D
:101A100039F6309751F510923A0310923903B0938A
:101A20003803A0933703BCCFD383C2834081518155
:101A3000840F951FC817D90761F44E5F5F4F8881E7
:101A40009981480F591F518340838A819B819383D9
:101A500082832115310509F0B0CFF0933A03E0936A
:101A600039039ECFFD01DC01C0CF13821282D7CF94
:101A7000B0E0A0E0EEE3FDE00C949B0B8C0100973E
:101A800051F4CB010E94130C8C01C801CDB7DEB715
:101A9000E0E10C94B70BFC01E60FF71F9C0122500C
:101AA0003109E217F30708F49DC0D901CD91DC910B
:101AB0001197C617D70798F0C530D10530F3CE017E
:101AC00004978617970708F3C61BD70B2297C19375
:101AD000D1936D937C93CF010E94AF0CD6CF5B0165
:101AE000AC1ABD0A4C018C0E9D1EA0913903B09119
:101AF0003A03512C412CF12CE12C109731F58091B7
:101B00003703909138038815990509F05CC0461693
:101B1000570608F058C0809100019091010100978C
:101B200041F48DB79EB74091040150910501841B8B
:101B3000950BE817F90708F055C0F0933803E093C8
:101B40003703F90171836083A0CF8D919C91119728
:101B500012966C90129713967C901397A815B9055E
:101B600059F56C0142E0C40ED11CCA14DB0420F10B
:101B7000AC014A195B09DA011296159780F062826E
:101B8000738251834083D9016D937C93E114F104F6
:101B900071F0D7011396FC93EE93129776CF2296AD
:101BA0008C0F9D1FF90191838083F301EFCFF09398
:101BB0003A03E093390369CF4816590608F42C011B
:101BC0007D01D3019ACFCB010E94130C7C010097B9
:101BD00049F0AE01B8010E94F50DC8010E94AF0C9A
:101BE000870153CF10E000E050CFFB01DC0102C0C1
:101BF00001900D9241505040D8F70895FB01DC014F
:101C00008D91019080190110D9F3990B0895FB0172
:101C1000DC0101900D920020E1F70895FB01DC0149
:101C20004150504030F08D910190801919F40020FE
:101C3000B9F7881B990B0895F894FFCF00003B0378
:101C4000800000000000A302C301F001F002610265
:101C5000FF0153020D0A00436170696D6167650001
:101C60007370656564002A64656E3D31002A6465A1
:101C70006E3D30002A62616E677461693D310052C9
:101C8000756E6E696E6720636F6E7665796F722010
:101C900061742073706565643A2000496E76616CEA
:101CA00069642073706565642076616C75652E20AB
:101CB000506C656173652070726F76696465206130
:101CC0002076616C7565206265747765656E20307D
:101CD00020616E64203235352E002A62616E677491
:101CE00061693D3000436F6E7665796F7220737461
:101CF0006F707065642E002A6D6163683D676F6F59
:101D000064002A6D6163683D6D697373002A6D61BB
:081D100063683D62616400009C
:107E0000112484B714BE81FFF0D085E080938100F7
:107E100082E08093C00088E18093C10086E0809377
:107E2000C20080E18093C4008EE0C9D0259A86E02C
:107E300020E33CEF91E0309385002093840096BBD3
:107E4000B09BFECF1D9AA8958150A9F7CC24DD24C4
:107E500088248394B5E0AB2EA1E19A2EF3E0BF2EE7
:107E6000A2D0813461F49FD0082FAFD0023811F036
:107E7000013811F484E001C083E08DD089C08234E0
:107E800011F484E103C0853419F485E0A6D080C0E4
:107E9000853579F488D0E82EFF2485D0082F10E0AE
:107EA000102F00270E291F29000F111F8ED06801E7
:107EB0006FC0863521F484E090D080E0DECF843638
:107EC00009F040C070D06FD0082F6DD080E0C81688
:107ED00080E7D80618F4F601B7BEE895C0E0D1E017
:107EE00062D089930C17E1F7F0E0CF16F0E7DF06D8
:107EF00018F0F601B7BEE89568D007B600FCFDCFD4
:107F0000A601A0E0B1E02C9130E011968C91119780
:107F100090E0982F8827822B932B1296FA010C0160
:107F200087BEE89511244E5F5F4FF1E0A038BF0790
:107F300051F7F601A7BEE89507B600FCFDCF97BE46
:107F4000E89526C08437B1F42ED02DD0F82E2BD052
:107F50003CD0F601EF2C8F010F5F1F4F84911BD097
:107F6000EA94F801C1F70894C11CD11CFA94CF0C13
:107F7000D11C0EC0853739F428D08EE10CD085E9AC
:107F80000AD08FE07ACF813511F488E018D01DD067
:107F900080E101D065CF982F8091C00085FFFCCF94
:107FA0009093C60008958091C00087FFFCCF809118
:107FB000C00084FD01C0A8958091C6000895E0E648
:107FC000F0E098E1908380830895EDDF803219F02E
:107FD00088E0F5DFFFCF84E1DECF1F93182FE3DFCA
:107FE0001150E9F7F2DF1F91089580E0E8DFEE27F6
:047FF000FF270994CA
:027FFE00040479
:00000001FF
