:100000000C945D000C9485000C9485000C94850084
:100010000C9485000C9485000C9485000C9485004C
:100020000C9485000C9485000C9485000C948E062D
:100030000C9485000C9485000C9485000C9485002C
:100040000C94D1040C9485000C9441050C941B0570
:100050000C9485000C9485000C9485000C9485000C
:100060000C9473050C948500000000002400270008
:100070002A0000000000250028002B0004040404CE
:100080000404040402020202020203030303030342
:10009000010204081020408001020408102001021F
:1000A00004081020000000080002010000030407FB
:1000B00000000000000000004A0711241FBECFEF1F
:1000C000D8E0DEBFCDBF11E0A0E0B1E0EEE4FBE19F
:1000D00002C005900D92A83CB107D9F723E0A8EC27
:1000E000B1E001C01D92A432B207E1F710E0CDE506
:1000F000D0E004C02197FE010E94960BCC35D107B9
:10010000C9F70E94DF070C94A50D0C9400008F9294
:100110009F92AF92BF92FF920F931F93CF93DF9363
:10012000F09005032BE02F1508F44CC02091070335
:1001300008E512E0021B110927FD1395000F111F9E
:10014000000F111F20910603C8E8D0E0C21BD1099F
:1001500027FDD395CC0FDD1FCC0FDD1F4E010D2EDB
:10016000000CAA08BB089801012E000C440B550B8B
:10017000281939094A095B09DC010E941A0B24EB92
:1001800030E040E050E00E94F00A820E931EA41E70
:10019000B51E8C169D062CF0E801801691060CF415
:1001A000E4012297CC0FDD1F2FB7F8948F2D90E03C
:1001B000FC01EE0FFF1FE80FF91FE052FD4FD28345
:1001C000C1832FBFDF91CF911F910F91FF90BF90FF
:1001D000AF909F908F90089590E0FC01EC55FF4FF9
:1001E0002491FC01E057FF4F3491FC01E458FF4F8C
:1001F000E491EE23C9F0222339F0233001F1A8F471
:10020000213019F1223029F1F0E0EE0FFF1FEE58F6
:10021000FF4FA591B4918FB7F894EC91611126C06E
:1002200030953E233C938FBF08952730A9F02830A6
:10023000C9F0243049F7809180008F7D03C0809100
:1002400080008F7780938000DFCF84B58F7784BD67
:10025000DBCF84B58F7DFBCF8091B0008F7780930B
:10026000B000D2CF8091B0008F7DF9CF3E2BDACF96
:10027000CF93DF9390E0FC01E057FF4F2491845827
:100280009F4FFC0184918823D1F090E0880F991F43
:10029000FC01E859FF4FA591B491FC01EE58FF4FC6
:1002A000C591D49161110EC09FB7F8948C91E22F43
:1002B000E0958E238C932881E223E8839FBFDF9112
:1002C000CF9108958FB7F894EC91E22BEC938FBF08
:1002D000F6CFCF93DF93EC0161E085E00E94380117
:1002E000209731F460E085E0DF91CF910C94EC0031
:1002F000CF3FD10511F461E0F6CFE9EAF0E0E491F7
:10030000E33029F140F4E130B1F0E230D9F0C03807
:10031000D1058CF7E7CFE73021F1E83051F1E43037
:10032000B1F780918000806280938000D0938B0031
:10033000C0938A0004C084B5806884BDC7BDDF91C6
:10034000CF91089584B5806284BDC8BDF8CF8091F7
:100350008000806880938000D0938900C0938800DB
:10036000EECF8091B00080688093B000C093B3005E
:10037000E6CF8091B00080628093B000C093B4005B
:10038000DECF3FB7F89480913B0290913C02A09160
:100390003D02B0913E0226B5A89B05C02F3F19F043
:1003A0000196A11DB11D3FBFBA2FA92F982F8827F5
:1003B000BC01CD01620F711D811D911D42E0660FD0
:1003C000771F881F991F4A95D1F70895AF92BF9262
:1003D000CF92DF92EF92FF920F931F93CF93DF9311
:1003E0006C017B018B01040F151FEB015E01AE1840
:1003F000BF08C017D10759F06991D601ED91FC9162
:100400000190F081E02DC6010995892B79F7C5018E
:10041000DF91CF911F910F91FF90EF90DF90CF90E0
:10042000BF90AF900895FC01538D448D252F30E08F
:10043000842F90E0821B930B541710F0CF960895F1
:1004400001970895FC01918D828D981761F0A28D1E
:10045000AE0FBF2FB11D5D968C91928D9F5F9F73E4
:10046000928F90E008958FEF9FEF08952FB7F89443
:1004700080913F0290914002A0914102B0914202CE
:100480002FBF80934B0290934C02A0934D02B093E8
:100490004E0283E492E00E94220297FF26C02FB70B
:1004A000F89480913F0290914002A0914102B09156
:1004B00042022FBF40914B0250914C0260914D027D
:1004C00070914E02841B950BA60BB70B409147020F
:1004D000509148026091490270914A028417950731
:1004E000A607B707B0F28FEF9FEF0895FC01918D3B
:1004F000828D981731F0828DE80FF11D858D90E087
:1005000008958FEF9FEF0895FC01918D228D892F23
:1005100090E0805C9F4F821B91098F73992708950B
:1005200083E492E00E94840221E0892B09F420E018
:10053000822F089580E090E0892B29F00E9490029C
:1005400081110C9400000895FC01A48DA80FB92F0F
:10055000B11DA35ABF4F2C91848D90E001968F73EB
:100560009927848FA689B7892C93A089B1898C910A
:10057000837080648C93938D848D981306C0028859
:10058000F389E02D80818F7D80830895EF92FF9223
:100590000F931F93CF93DF93EC0181E0888F9B8DA6
:1005A0008C8D98131AC0E889F989808185FF15C060
:1005B0009FB7F894EE89FF896083E889F989808183
:1005C0008370806480839FBF81E090E0DF91CF9152
:1005D0001F910F91FF90EF900895F62E0B8D10E074
:1005E0000F5F1F4F0F731127E02E8C8D8E110CC0E3
:1005F0000FB607FCFACFE889F989808185FFF5CF2E
:10060000CE010E94A402F1CFEB8DEC0FFD2FF11D66
:10061000E35AFF4FF0829FB7F8940B8FEA89FB896A
:1006200080818062CFCFCF93DF93EC01888D8823C8
:10063000B9F0AA89BB89E889F9898C9185FD03C045
:10064000808186FD0DC00FB607FCF7CF8C9185FF2A
:10065000F2CF808185FFEDCFCE010E94A402E9CFC9
:10066000DF91CF9108952091F001260F3327331F9A
:1006700021323105ECF420911402FC0190E080E07D
:10068000243069F082E00895A091F0012191AC013D
:1006900040535E4FA40FB52FB11D2C9301968617C2
:1006A00098F38091F001680F6093F00180E0089565
:1006B00081E0089508958FEF9FEF08958FEF9FEFEA
:1006C00008958091C90190E09195819591090895CF
:1006D000CF93DF93CB01EA01642F0E943303CE0155
:1006E000DF91CF910895CF93DF931F92CDB7DEB7FF
:1006F000698361E0CE0101960E94330381E090E0BE
:100700000F90DF91CF91089590E080E00895FC0173
:1007100001900020E9F73197AF01481B590BBC014C
:1007200083E492E00C94E601FB0144815581FC01D5
:10073000248135812417350778F0808191810097D5
:1007400059F0FB01608171816115710529F00E94EA
:10075000970D21E0892B09F020E0822F0895FC01FC
:1007600024813581232B39F421E0FB01808188230A
:1007700049F020E007C0808191810E94870D21E02F
:10078000892BB9F7822F08950F931F93CF93DF938F
:10079000EC0188819981009759F02A813B812617C5
:1007A000370730F081E0DF91CF911F910F910895CD
:1007B0008B016F5F7F4F0E94C10C009759F09983A6
:1007C00088831B830A832C813D81232B59F7FC01ED
:1007D0001082E8CF80E0E7CFCF93DF93EC018881F0
:1007E0009981009711F00E94380C198218821D829D
:1007F0001C821B821A82DF91CF910895EF92FF92A3
:100800000F931F93CF93DF938C017B01EB01099032
:100810000020E9F72197C61BD70BBE010E94C40335
:10082000811109C0C801DF91CF911F910F91FF90F5
:10083000EF900C94EC03F801D583C483B701808159
:100840009181DF91CF911F910F91FF90EF900C94C8
:10085000900DEF92FF920F931F93CF93DF938C0134
:100860007B016115710561F0EB0109900020E9F74A
:100870002197C61BD70BBE010E94C40381110BC078
:10088000C8010E94EC03C801DF91CF911F910F9125
:10089000FF90EF900895F801D583C483B70180815C
:1008A00091810E94900DEFCFFC0180819181009792
:1008B00011F00C94380C08951F93CF93DF9385EDBE
:1008C0008093BC008091CC019091CD01A091CE018C
:1008D000B091CF010796A11DB11D23E0B695A79554
:1008E000979587952A95D1F72091BC0024FD03C0E8
:1008F0001092140252C04091CC015091CD016091F0
:10090000CE017091CF01452B462B472B69F3009701
:10091000A105B10541F02AE22A95F1F700C001973F
:10092000A109B109E1CF8091CB01C1E0C093CA0117
:10093000882399F1D091B8001091BA008091BC0041
:100940008A7B8093BC0060E082E10E94EC0060E062
:1009500083E10E94EC0010921402C09316021092E0
:10096000150261E082E10E94EC0061E083E10E94F7
:10097000EC008091B9008E7F8093B9008091B9001E
:100980008D7F8093B90088E48093B80085E48093DC
:10099000BC001093BA00D093B800DF91CF911F91A3
:1009A00008951F920F920FB60F9211242F933F9329
:1009B0008F939F93AF93BF9380913F02909140029A
:1009C000A0914102B091420230913A0223E0230FFC
:1009D0002D3758F50196A11DB11D20933A02809341
:1009E0003F0290934002A0934102B0934202809153
:1009F0003B0290913C02A0913D02B0913E020196D3
:100A0000A11DB11D80933B0290933C02A0933D0237
:100A1000B0933E02BF91AF919F918F913F912F91E3
:100A20000F900FBE0F901F90189526E8230F029687
:100A3000A11DB11DD2CF1F920F920FB60F9211249C
:100A40002F933F934F935F936F937F938F939F93D6
:100A5000AF93BF93EF93FF9383E492E00E94A402CD
:100A6000FF91EF91BF91AF919F918F917F916F9186
:100A70005F914F913F912F910F900FBE0F901F905C
:100A800018951F920F920FB60F9211242F938F93E8
:100A90009F93EF93FF93E0915302F0915402808172
:100AA000E0915902F0915A0282FD1BC09081809121
:100AB0005C028F5F8F7320915D02821741F0E0919D
:100AC0005C02F0E0ED5BFD4F958F80935C02FF913F
:100AD000EF919F918F912F910F900FBE0F901F90CC
:100AE00018958081F4CF1F920F920FB60F921124A8
:100AF0002F933F934F935F936F937F938F939F9326
:100B0000AF93BF93EF93FF938091B900887F8036B6
:100B100009F44AC0F0F5883209F4A5C018F580310F
:100B200009F499C0B8F4882309F4F5C0883009F4B1
:100B300092C0FF91EF91BF91AF919F918F917F9163
:100B40006F915F914F913F912F910F900FBE0F903A
:100B50001F901895883109F486C0803251F7809330
:100B6000130214C0803409F49BC040F48033B9F3FD
:100B70008833F9F68093130285ECAEC0803509F412
:100B800083C0883509F494C0883499F60E945C04C7
:100B9000D0CF883909F48AC038F5883729F050F465
:100BA000883611F0803729F683E080931402109282
:100BB000120255C0883809F479C0803919F080389C
:100BC00009F0B7CF80911202803208F06FC0E09137
:100BD000120281E08E0F809312028091BB00F0E040
:100BE000EE50FE4F80833BC0803B39F0D0F4803A1A
:100BF00009F477C0883A09F09CCF84E0809314020E
:100C00001092F1011092F001F0E0E0E0099580917E
:100C1000F00181110FC081E08093F0011092D001AA
:100C200009C0803C09F4A8CF883C09F4A5CF883BD3
:100C300009F07FCFE091F10181E08E0F8093F10107
:100C4000F0E0E053FE4F80818093BB009091F10172
:100C50008091F00129C0809139028093BB0085EC1E
:100C60008093BC0066CF909138028091370298172C
:100C700058F5E091380281E08E0F80933802F0E061
:100C8000E95EFD4F8081E9CFE091380281E08E0F6F
:100C9000809338028091BB00F0E0E95EFD4F8083D5
:100CA00090913802809137029817C8F285E8D8CF22
:100CB000E091380281E08E0F809338028091BB0072
:100CC000F0E0E95EFD4F80838091160281115ECFD6
:100CD00081E08093150284EA8093BC001092140294
:100CE00028CF85EC8093BC001092140280911202F0
:100CF000803230F4E0911202F0E0EE50FE4F1082AC
:100D00006091120270E082EF91E0F0E0E0E009957E
:100D1000109212020ECF1092130238CF1F920F9230
:100D20000FB60F9211242F933F934F935F936F93BE
:100D30007F938F939F93AF93BF93CF93DF93EF9363
:100D4000FF938091C801C0910403D0E087FF24C0C5
:100D500010928500109284008091C8018F5F80936B
:100D6000C8018091C801082E000C990B8C179D07B3
:100D700024F48091C8018C30C4F18091840090915A
:100D80008500049680349C4908F47AC080918400E0
:100D900090918500049676C08091C801082E000CC1
:100DA000990B8C179D07C4F6E091C8018E2FEE0FAA
:100DB000990BFC01EE0FFF1FE80FF91FE052FD4FEA
:100DC000808186FFC9CFE091C8018E2FEE0F990B6D
:100DD000FC01EE0FFF1FE80FF91FE052FD4F80816D
:100DE00060E08F730E94EC00B7CF209184003091B7
:100DF0008500E091C8018E2FEE0F990BFC01EE0FDC
:100E0000FF1FE80FF91FE052FD4F81819281820F91
:100E1000931F9093890080938800E091C8018E2FE2
:100E2000EE0F990BFC01EE0FFF1FE80FF91FE052C8
:100E3000FD4F808186FF11C0E091C8018E2FEE0F1B
:100E4000990BFC01EE0FFF1FE80FF91FE052FD4F59
:100E5000808161E08F730E94EC00FF91EF91DF9140
:100E6000CF91BF91AF919F918F917F916F915F9142
:100E70004F913F912F910F900FBE0F901F9018959B
:100E800080E49CE990938900809388008FEF8093A1
:100E9000C801E3CF109246021092450288EE93E01B
:100EA000A0E0B0E08093470290934802A0934902EB
:100EB000B0934A028AE091E0909344028093430207
:100EC00085EC90E09093500280934F0284EC90E088
:100ED000909352028093510280EC90E090935402E0
:100EE0008093530281EC90E09093560280935502D8
:100EF00082EC90E0909358028093570286EC90E049
:100F000090935A028093590210925C0210925D02F3
:100F100010925E0210925F02109214031092150359
:100F200010921603109217031092180310921903CF
:100F300010921A0310921B0310921C0310921D03AF
:100F400010921E0310921F0380E090E0A0E0B0E436
:100F50008093080390930903A0930A03B0930B03B3
:100F600080930C0390930D03A0930E03B0930F0393
:100F70008DEC9CECACECBDE38093100390931103DB
:100F8000A0931203B0931303809104038C3098F460
:100F900091E0980F909304038093050390E0FC0187
:100FA000EE0FFF1FE80FF91FE052FD4F88EB9BE0AB
:100FB0009283818308958FEF809305030895CF93E3
:100FC000DF93CDB7DEB762970FB6F894DEBF0FBEE2
:100FD000CDBF789484B5826084BD84B5816084BDC2
:100FE00085B5826085BD85B5816085BD80916E00C7
:100FF000816080936E0010928100809181008260F8
:101000008093810080918100816080938100809134
:1010100080008160809380008091B1008460809323
:10102000B1008091B00081608093B00080917A001F
:10103000846080937A0080917A00826080937A0045
:1010400080917A00816080937A0080917A00806834
:1010500080937A001092C10061E08CE00E94380118
:1010600060E08CE00E94EC00E0915302F0915402A9
:1010700082E08083E0914F02F09150021082E09173
:101080005102F09152028FEC808310925B02E0914A
:101090005702F091580286E08083E0915502F0916A
:1010A0005602808180618083E0915502F091560262
:1010B000808188608083E0915502F09156028081A2
:1010C00080688083E0915502F091560280818F7D87
:1010D0008083809105038C3008F051C061E089E085
:1010E0000E94380180910503282F30E0F901EE0FAE
:1010F000FF1FE20FF31FE052FD4F9081907C99603B
:10110000908310920603109207032CE0622F0E9436
:101110008A0B829FB001112430E020E0AB01420F26
:10112000531FFA01EE0FFF1FE40FF51FE052FD4FB2
:10113000908196FD16C02F5F3F4F2C30310571F71F
:1011400081110FC01092800082E080938100109284
:10115000850010928400B19A80916F008260809324
:101160006F00E09105038E2F90E0FC01EE0FFF1F52
:10117000E80FF91FE052FD4F80818064808361E0B9
:1011800083E00E94380161E084E00E94380161E060
:1011900085E00E94380161E086E00E94380160E04D
:1011A00087E00E94380130E0A32E30E0B32E83E4C4
:1011B00092E00E948402181619060CF055C11E8692
:1011C0001D86188A1F861A8A198A64E971E0CE0181
:1011D0000D960E94FE030E94360297FD1EC08332C8
:1011E0009105D9F089831A8209891A890F5F1F4FE7
:1011F000B801CE010D960E94C403882361F32D85AA
:101200003E8589899A89BE016F5F7F4F820F931F48
:101210000E94900D1A8B098BDECFCD84DE84C11421
:10122000D10439F009891A8976010115110509F0EF
:1012300028C118861F821A8619861C861B8664E9B7
:1012400071E0CE0107960E94FE0309891A890230D7
:101250001105C8F00630110510F006E010E0ED852C
:10126000FE85E00FF11FF08010826D857E856F5F37
:101270007F4FCE0107960E9429048D859E85080F19
:10128000191FF801F08268E171E0CE0107960E9413
:10129000AF03882309F44CC0E988FA8897E0C92E87
:1012A000D12CF7E0EF16F10420F4670127E0E22EDD
:1012B000F12C1A8219821C821B821E821D8264E913
:1012C00071E0CE0101960E94FE0309891A89C016B9
:1012D000D106C0F4E016F10608F48701ED85FE851D
:1012E000E00FF11FF08010826D857E856C0D7D1DF5
:1012F000CE0101960E9429048D859E85080F191F35
:10130000F801F08289819A81009709F4F0C00E9467
:10131000A80ACB010E9469014D815E8169817A81B1
:1013200083E492E00E94E601CE0101960E945404FB
:101330006EE171E0CE010D960E94AF03882321F08B
:1013400061E08CE00E94EC0065E271E0CE010D9658
:101350000E94AF03882321F060E08CE00E94EC0043
:101360001A8219821C821B821E821D826CE271E02D
:10137000CE0101960E94FE03BE016F5F7F4FCE013A
:101380000D960E949403182FCE0101960E945404DA
:10139000112309F4B7C08D859E85C12CD12C76010F
:1013A000009719F00E94A80A6B01FFEFCF16D10435
:1013B00011F008F0A0C0C6010E94690161E083E05D
:1013C0000E94EC0060E084E00E94EC00C601895CB1
:1013D0009E4F0E94870362EB71E0CE010D960E9442
:1013E000AF03882321F090E080E00E9487006DEB3E
:1013F00071E0CE010D960E94AF03882369F18AE562
:1014000090E00E9487000E94C1016B017C0188EB83
:10141000482E8BE0582E612C712C0E94C1016C1952
:101420007D098E099F09683E734081059105A8F3E7
:1014300021E0421A51086108710888EEC80E83E065
:10144000D81EE11CF11C411451046104710429F7F8
:1014500090E080E00E948700CE0107960E9454042D
:10146000CE010D960E945404A114B10409F49FCE3C
:101470000E949002882309F49ACE0E94000097CE21
:10148000730137012FEF621A720AF7018081082E6B
:10149000000C990B0E94E40A892B91F70150110965
:1014A0000C0D1D1DF8018081082E000C990B0E9467
:1014B000E40A892B31F00E151F0518F001501109AF
:1014C000F1CFA8014F5F5F4F4E195F095A8B498BCF
:1014D000CE14DF0420F4B701C6010E947E0DED8515
:1014E000FE8589899A89E80FF91F1082A2CE60E0F3
:1014F00070E0CB010ECF83E591E00E94870382E983
:1015000091E067CF1A8219821C821B821E821D8283
:1015100065E971E0CE0101960E94FE03BE016F5F96
:101520007F4FCE010D960E949403182FCE01019695
:101530000E945404112309F44ECF60E083E00E941E
:10154000EC0060E084E00E94EC0080EA91E0D5CFFE
:101550001F93FC0199278827BC01E8941191103250
:10156000E9F3193010F01E30C8F31B3251F01D3270
:1015700049F4689406C00E94CF0A610F711D811D55
:10158000911D119110531A30B0F33EF4909580954F
:10159000709561957F4F8F4F9F4F1F910895592FE1
:1015A000482F372F262F660F771F881F991F660F2A
:1015B000771F881F991F620F731F841F951F660F67
:1015C000771F881F991F089591110C94ED0A80329E
:1015D00019F089508550C8F70895992788270895EC
:1015E000052E97FB1EF400940E94070B57FD07D0B1
:1015F0000E94590B07FC03D04EF40C94070B509536
:101600004095309521953F4F4F4F5F4F08959095EE
:101610008095709561957F4F8F4F9F4F08950E94E1
:101620007B0BA59F900DB49F900DA49F800D911DE5
:1016300011240895B7FF0C940F0B0E940F0B821B0F
:10164000930B08952F923F924F925F926F927F92E9
:101650008F929F92AF92BF92CF92DF92EF92FF92C2
:101660000F931F93CF93DF93CDB7DEB7CA1BDB0B6E
:101670000FB6F894DEBF0FBECDBF09942A88398813
:1016800048885F846E847D848C849B84AA84B9841A
:10169000C884DF80EE80FD800C811B81AA81B98126
:1016A000CE0FD11D0FB6F894DEBF0FBECDBFED013A
:1016B0000895A1E21A2EAA1BBB1BFD010DC0AA1F93
:1016C000BB1FEE1FFF1FA217B307E407F50720F0AB
:1016D000A21BB30BE40BF50B661F771F881F991F26
:1016E0001A9469F760957095809590959B01AC016F
:1016F000BD01CF010895A29FB001B39FC001A39F78
:10170000700D811D1124911DB29F700D811D11243A
:10171000911D0895991B79E004C0991F961708F050
:10172000961B881F7A95C9F780950895EE0FFF1FC5
:101730000590F491E02D09940F931F93CF93DF93BD
:101740008230910510F482E090E0E0912203F09164
:10175000230330E020E0B0E0A0E0309799F42115B9
:10176000310509F44AC0281B390B24303105D8F55E
:101770008A819B816115710589F1FB0193838283C5
:10178000FE0111C040815181028113814817590720
:10179000E0F04817590799F4109761F012960C93EE
:1017A000129713961C933296CF01DF91CF911F9120
:1017B0000F9108950093220310932303F4CF211572
:1017C000310551F04217530738F0A901DB019A01A6
:1017D000BD01DF01F801C1CFEF01F9CF90932303E1
:1017E00080932203CDCFFE01E20FF31F81939193EB
:1017F0002250310939832883D7CF2091200330919B
:101800002103232B41F420910201309103013093F5
:101810002103209320032091000130910101211523
:10182000310541F42DB73EB74091040150910501B7
:10183000241B350BE0912003F0912103E217F307FD
:10184000A0F42E1B3F0B2817390778F0AC014E5F30
:101850005F4F2417350748F04E0F5F1F5093210349
:1018600040932003819391939FCFF0E0E0E09CCFE1
:10187000CF93DF930097E9F0FC0132971382128235
:10188000A0912203B0912303ED0130E020E01097F6
:10189000A1F420813181820F931F20912003309188
:1018A00021032817390709F061C0F0932103E09361
:1018B0002003DF91CF910895EA01CE17DF07E8F505
:1018C0004A815B819E0141155105B1F7E901FB8316
:1018D000EA8349915991C40FD51FEC17FD0761F4B4
:1018E000808191810296840F951FE90199838883F5
:1018F000828193819B838A83F0E0E0E012968D9150
:101900009C9113970097B9F52D913C911197CD01BA
:101910000296820F931F20912003309121032817F4
:10192000390739F6309751F51092230310922203AC
:10193000B0932103A0932003BCCFD383C283408103
:101940005181840F951FC817D90761F44E5F5F4F0F
:1019500088819981480F591F518340838A819B81D7
:10196000938382832115310509F0B0CFF0932303CF
:10197000E09322039ECFFD01DC01C0CF13821282CF
:10198000D7CFB0E0A0E0E7ECFCE00C94240B8C0196
:10199000009751F4CB010E949C0B8C01C801CDB77C
:1019A000DEB7E0E10C94400BFC01E60FF71F9C0151
:1019B00022503109E217F30708F49DC0D901CD91F7
:1019C000DC911197C617D70798F0C530D10530F3D1
:1019D000CE0104978617970708F3C61BD70B2297EB
:1019E000C193D1936D937C93CF010E94380CD6CFD5
:1019F0005B01AC1ABD0A4C018C0E9D1EA091220306
:101A0000B0912303512C412CF12CE12C109731F58E
:101A100080912003909121038815990509F05CC0FD
:101A20004616570608F058C08091000190910101B8
:101A3000009741F48DB79EB7409104015091050184
:101A4000841B950BE817F90708F055C0F0932103A4
:101A5000E0932003F90171836083A0CF8D919C9165
:101A6000119712966C90129713967C901397A81565
:101A7000B90559F56C0142E0C40ED11CCA14DB044F
:101A800020F1AC014A195B09DA011296159780F032
:101A90006282738251834083D9016D937C93E114F8
:101AA000F10471F0D7011396FC93EE93129776CF61
:101AB00022968C0F9D1FF90191838083F301EFCF54
:101AC000F0932303E093220369CF4816590608F4E4
:101AD0002C017D01D3019ACFCB010E949C0B7C018C
:101AE000009749F0AE01B8010E947E0DC8010E9426
:101AF000380C870153CF10E000E050CFFB01DC0130
:101B000002C001900D9241505040D8F70895FB015A
:101B1000DC018D91019080190110D9F3990B089582
:101B2000FB01DC0101900D920020E1F70895FB011B
:101B3000DC014150504030F08D910190801919F432
:0E1B40000020B9F7881B990B0895F894FFCF89
:101B4E0000002403800000000000C602E60113021C
:101B5E0013038402220276027370656564002A64A0
:101B6E00656E3D31002A64656E3D30002A62616EFD
:101B7E00677461693D310052756E6E696E672063E0
:101B8E006F6E7665796F722061742073706565640F
:101B9E003A2000496E76616C6964207370656564E5
:101BAE002076616C75652E20506C656173652070B2
:101BBE00726F7669646520612076616C756520624E
:101BCE0065747765656E203020616E642032353520
:101BDE002E000D0A002A62616E677461693D300045
:101BEE00436F6E7665796F722073746F7070656473
:101BFE002E002A6D6163683D676F6F64002A6D6108
:081C0E0063683D62616400009F
:00000001FF
